:020000040800F2
:1060000038080020D5600008B972000851710008F6
:106010000000000000000000000000000000000080
:106020000000000000000000000000006373000892
:1060300000000000000000003D73000855840008C7
:10604000E7600008E7600008E7600008E760000814
:10605000E7600008E7600008E7600008CD6400081A
:10606000E7600008E760000891640008E760000846
:10607000E7600008E7600008E7600008E7600008E4
:10608000E7600008E7600008E7600008E7600008D4
:10609000E7600008E7600008E7600008E7600008C4
:1060A000E760000841730008E7600008E760000847
:1060B000E7600008E7600008E7600008E7600008A4
:1060C0000348854600F0C2F9004800476D85000886
:1060D000380800200448804704480047FEE7FEE7F0
:1060E000FEE7FEE7FEE7FEE7A9840008C1600008BE
:1060F00030B50B46014600202022012409E00D4660
:10610000D5409D4205D31D469540491B25469540E7
:1061100040191546521E002DF1DC30BD10B5202A65
:1061200004DB0846203AD040002110BD0B46D34086
:10613000D0402024A21A91400843194610BD0346BE
:106140000B439B0703D009E008C9121F08C0042AAB
:10615000FAD203E00B780370401C491C521EF9D29E
:106160007047D2B201E00270401C491EFBD270475A
:106170000022F6E710B513460A4604461946FFF713
:10618000F0FF204610BD0000F0B51FB488B00B9999
:106190000998002448400999C00F4900490809910D
:1061A000C0070B990090490049080B91099908987C
:1061B000A64608431CD00B990A98084318D00998A2
:1061C00001244000420D4800410D099824050003B8
:1061D000000B204309900B980003000B20430B9009
:1061E00050181C494018002201901446104605E042
:1061F000002001460DB0F0BD032801DA034600E09F
:1062000003239C46C11A0AAE0AE05F0008ADED5BAD
:106210004F00F75B7D430027AA187C41491C5B1E99
:106220006145F2DD410004AB5A522104120C0A43CD
:10623000240C401C0828DFDB01980290009970466E
:1062400001910090059B049A0799069800F0ABF81D
:10625000D0E700000DFCFFFFF0B50C465C4085B0B8
:10626000E40FE40703944C000026640859009446A8
:10627000490802460296224321D062460A431ED0B4
:106280006200570D4A000E032303550D01240246F8
:106290002C492405781B1B0B360B4018234326433F
:1062A000614600901C46501AB44103D30098401C2C
:1062B000009002E0921800985B41002803DA002069
:1062C000014605B0F0BD00200121090507468646BC
:1062D00011E064461D46141BB54106D36546521BAA
:1062E000B341744607430C43A646CD07400849080E
:1062F000284392185B4105460D43EAD110461843E6
:1063000013D06046194650407140084306D060469D
:10631000101AB34106D20122002306E00022012315
:10632000DB0702E00122D2435310009874460105B6
:10633000381C6141029C039D0019694100F026F858
:10634000BFE70000FD0300000EB5C217C10F5040AB
:10635000CA0740180021054B0293019200910A469A
:106360000B4600F020F803B000BD0000330400002D
:106370000EB505490291002100910A460B46019194
:1063800000F011F803B000BD3304000010B5002B7D
:1063900008DA0024401C614192185B411A4301D184
:1063A0004008400010BDF0B51FB482B005460C0097
:1063B00003D0084602F0A6F802E002F0A3F820306D
:1063C000024600902146284600F052F8049B059AA8
:1063D00004460F4618431143084314D0184610438F
:1063E0001BD0009840210A1A18460599FFF796FE1F
:1063F00005460E46009A0599049800F039F80843BE
:1064000005D0012004E02046394607B0F0BD002049
:10641000C11705430E432C43374300990E9863057B
:10642000401A7905E40A00220C43FD0A0A3002D51D
:1064300000200146E9E70105101969410C9C0D9DFA
:1064400000196941FFF7A2FFDFE70000064C0125B4
:10645000064E05E0E36807CC2B430C3C984710340C
:10646000B442F7D3FFF730FE00870008208700080A
:1064700010B5202A04DB0146203A9140002010BDCF
:10648000914020239C1A0346E3401943904010BDDD
:1064900010B5034800F044F8024800F041F810BD80
:1064A000F0010020AC01002010B504460068054949
:1064B00040181421FFF71CFE800020640248E063AE
:1064C00010BD0000F8FFFDBF0000024010B54020E5
:1064D00000F0B0F810BD704770B5002401462031BF
:1064E0004A78022A03D004218163012416E002685D
:1064F00013680E25AB431360026813685B085B00EA
:1065000013600122056C1346AB40C56B6B604A708B
:1065100000220A70416B002900D08847204670BDD8
:10652000F0B4C16B0D6801680C680422066C134658
:10653000B3402B420DD063070BD50B689B0602D4EA
:106540000B6893430B60016C8A40C16B4A60C16A5F
:1065500019E00227B74002462F4001232032002FC6
:1065600015D0A70713D50C68A40604D40C680A2517
:10657000AC430C605370036C02219940C36B5960AB
:1065800000211170816A002916D0F0BC0847082745
:10659000B7402F4210D024070ED50C680E25AC430F
:1065A0000C60046C1946A140C46B61608363537036
:1065B00000211170016BE6E7F0BC704770B5040074
:1065C00024D00220214620310D46487022681168EF
:1065D0000F48A3680140606826691843E3683343A5
:1065E000184363691843A3691843E36918430843D0
:1065F00010602046FFF758FF0020A062E062206391
:106600006063A06301216970287070BD012070BDB6
:106610000FC0FFFF31B500F0D5F8009C0546601CA7
:1066200000D0641C00F0CEF8401BA042FAD338BD65
:106630007047000010B504494A69024202D048611F
:10664000FFF7F6FF10BD000000040140F8B500237D
:1066500093E0224601249C40A44622407ED04C6810
:10666000022C01D0122C0CD1DC08A40027183C6AA3
:106670005D07ED0E0F26AE40B4430E69AE402643D3
:106680003E6205685E000324B4400F79A543BF074E
:10669000BF0FB7402F4307604D68012D05D0022D75
:1066A00003D0112D01D0122D0ED18568CF68A543DE
:1066B000B7402F43876047686546AF430D79ED06C5
:1066C000ED0F9D403D434560C568A5438C68B440CF
:1066D0002C43C4604C68E4004ED52B4CA5690126C0
:1066E0003543A561A4699D0834400094274CAD0052
:1066F0002F19BC689D072E0F0F25B540AC43092507
:10670000ED06A84201D1002514E0214DA84201D197
:1067100001250FE01F4DA84201D102250AE01E4DC0
:10672000A84201D1032505E01C4DA84201D1042552
:1067300000E00525B5402543BD60194C25684E682D
:106740009543F60300D51543256065684E6895436B
:10675000B60300D515436560A56800E00CE04E68FF
:106760009543F60200D51543A560E5684E6895434C
:10677000B60200D51543E5605B1C0A681446DA4092
:1067800000D066E7F8BD00000010024000000140A4
:106790000004004800080048000C004800100048B1
:1067A000000401400069084000D0012070474269A0
:1067B0004A4042617047002A01D08161704781627E
:1067C0007047000001480068704700002C0100205D
:1067D00002480168491C0160704700002C0100203C
:1067E00010B506480168102211430160002000F036
:1067F00007F800F017F8002010BD0000002002404C
:1068000010B5044600F0DAF87D21C900FFF770FCEE
:1068100000F086FC00222146501E00F021F80020E6
:1068200010BD000008B5084881690122114381614B
:10683000816911400091C26901040A43C261C069C3
:106840000840009008BD000000100240C106C90EBB
:1068500001208840014908607047000000E100E025
:1068600010B500F02BFD10BDF8B505464E480E469C
:106870000068C007C00FB0420AD24B4801684908FF
:106880004900314301600068C007C00FB04270D1B9
:106890002878464C800705D56068F0218843A968B0
:1068A000084360602878C00753D06868012817D073
:1068B000022818D0032819D021688907002958DA3E
:1068C00061688908890001436160FFF77BFF69689F
:1068D0000746012913D002291DD0032927D034E00F
:1068E00021688903EAE721688901E7E7616BC90349
:1068F000E4E7FFF767FFC11B2D48814223D860689A
:106900000007800F0128F4D123E0FFF75BFFC11BD4
:106910002748814217D860680007800F0228F4D109
:1069200017E0FFF74FFFC11B214881420BD8606879
:106930000007800F0328F4D10BE0FFF743FFC11BD2
:106940001B48814201D90320F8BD60680007800F11
:10695000F3D115480168C907C90FB1420BD90168C5
:1069600049084900314301600068C007C00FB042C8
:1069700001D00120F8BD2878400706D560680721BE
:1069800009028843E9680843606000F01DF8616807
:10699000084A0906090F515CC840074908600020F1
:1069A000FFF72EFF0020F8BD00200240001002403B
:1069B00088130000E88500083001002001480068C5
:1069C000704700003001002030B516A30FCB89B00E
:1069D0006C460FC417A30FCB0FC41A494A680C208A
:1069E000144604401848042C05D0184B082C04D039
:1069F0000C2C00D1184609B030BD9402240F6D460E
:106A00002C5DC96A04AD0907090FD203695C920FB6
:106A1000022A02D0032A00D11846FFF769FB60431F
:106A2000E9E7000002030405060708090A0B0C0D3C
:106A30000E0F10100102030405060708090A0B0CCB
:106A40000D0E0F100010024000127A00006CDC02E4
:106A5000FEB504460078F04EF04DC00748D0686897
:106A60000007800F01281FD068680007800F0228E8
:106A700004D16868C003800F022815D0616801291D
:106A800019D001208004002901D0052917D02968D8
:106A9000B1432960296881432960606800281BD0C0
:106AA000FFF790FE074613E02868800320D5606852
:106AB000002876D01CE0286830432860EDE729687C
:106AC00001432960F7E7FFF77DFEC01B642869D802
:106AD00028688003F7D50BE0FFF774FE074604E053
:106AE000FFF770FEC01B6428F1D828688003F7D434
:106AF000207880073ED568680007800F14D068684A
:106B00000007800F022804D16868C003800F0128A5
:106B10000AD0E068002828681DD0012108432860B9
:106B2000FFF750FE07460BE0286880070BD5E068AA
:106B3000012836D107E0FFF745FEC01B0228C6D862
:106B400028688007F7D52868F82188432169C9009B
:106B5000084328600EE0400840002860FFF732FE3E
:106B6000074604E0FFF72EFEC01B0228AFD82868B6
:106B70008007F7D42078000724D5E0690028686AE8
:106B800011D0012108436862FFF71CFE074604E0AC
:106B9000FFF718FEC01B022899D8686A8007F7D54E
:106BA00010E036E1D1E0400840006862FFF70AFEDD
:106BB000074604E0FFF706FEC01B022887D8686A74
:106BC0008007F7D4207804274007002861DA0020E6
:106BD0000190E869C00008D4E969B8060143E96199
:106BE000E96901400120009101908D480168C905C3
:106BF00011D40168821511430160FFF7E3FD009095
:106C000005E0FFF7DFFD0099401A642897D8844813
:106C10000068C005F5D5A06801280AD0002801D079
:106C2000052811D0286A400840002862286AB84325
:106C300002E0286A012108432862A068002812D0D7
:106C4000FFF7C0FD00900AE0286A38432862F0E7A9
:106C5000FFF7B8FD0099411A7248814275D8286A39
:106C60008007F5D50DE0FFF7ADFD009006E0FFF7DA
:106C7000A9FD0099411A6B48814266D8286A8007AD
:106C8000F5D40198002804D0E96901200007814368
:106C9000E9612078C00635D5606901280CD0401D17
:106CA000686B24D038436863686B400840006863B1
:106CB000FFF788FD074622E0686B38436863686B1E
:106CC000012108436863FFF77DFD074604E0FFF7F5
:106CD00079FDC01B022838D8686B8007F7D5686B30
:106CE000F8218843A169C900084368630AE0B843F2
:106CF0006863F4E7FFF766FDC01B022825D8686BC0
:106D00008007F7D42078800637D568680007800FA1
:106D1000032813D068680007800F022804D1686830
:106D2000C003800F032809D0206A0028686B16D0A2
:106D300030436863FFF746FD06460CE0686BC0030E
:106D40001BD5206A012864D117E05BE0FFF73AFD0C
:106D5000801B022856D8686BC003F7D50DE0B043FE
:106D60006863FFF72FFD064604E0FFF72BFD801B4D
:106D7000022847D8686BC003F7D4606A002846D061
:106D800069680907890F022943D0012636060228BF
:106D9000286805D0B0432860FFF714FD044633E0AF
:106DA000B0432860FFF70EFD074604E0FFF70AFD39
:106DB000C01B022826D828688001F7D4E86A216B16
:106DC000000900010843E862A16AE06A08436968B3
:106DD0007B22D203914308436860286830432860CF
:106DE000FFF7F0FC044604E0FFF7ECFC001B022870
:106DF00008D828688001F7D509E0FFF7E3FC001BFD
:106E0000022801D90320FEBD28688001F5D40020A6
:106E1000FEBD0120FEBD0000000001000010024088
:106E2000007000408813000070470000F8B5044669
:106E30000068426881684B0605D4CB0703D053062F
:106E400001D5E16C04E08B0705D5130603D5216D50
:106E500020468847F8BDFF2361331942FAD09306D4
:106E6000F8D523464D064033002D09DA5D7F032D0A
:106E70003CD0256E042635432566C5688568009597
:106E80008E060125002E08DA266E2E4326668668B9
:106E9000009606684027BE430660C80506D5206EEA
:106EA000082108432066206880680090206E002832
:106EB000D0D020684168E026B14341605D779007FB
:106EC00018D020684168890889004160A06D0B4D89
:106ED000002803D04563A06DFFF7FEFA606D00281F
:106EE000B8D04563606DFFF7F7FAF8BDC1688068F8
:106EF0000090F8BD2046FFF797FFF8BD51730008DA
:106F0000F8B5040007D0002625464035A662687F04
:106F1000002802D005E00120F8BD2E77204600F0C1
:106F200099F802236B772068016840229143016041
:106F30000721E0680902884201D9002201E001220C
:106F400012030F273F02B84202D0884200D0A66247
:106F5000276B002F05D1884201D9236301E001206E
:106F60002063A16860686369084321691943084385
:106F70000123A1695B0219400843E1690843216AC2
:106F80000843A16A084321680860616B606AA369CD
:106F900008431B0C0427E1683B4019430843216860
:106FA000104348602068C1697A029143C161266636
:106FB000012068770020F8BDFFB50446006881B065
:106FC00042681F4602231A43426020684268012635
:106FD000324342601E4D28680268B2430260206856
:106FE0002A680C3090602868C160286847600920D2
:106FF00000229903C006FFF7DEFB286801683143D1
:1070000001602846443001680A68B2430A6021687A
:1070100002680C31916002680399D16001684F6089
:107020000068016831430160206801684022114313
:10703000016020688168C907FCD181680906FCD419
:1070400001220920D103C006FFF7B5FB05B0F0BD52
:10705000AC010020F0B587B0064614216846FFF762
:1070600087F82A49306888424ED1294881698714B7
:1070700039438161816939400591426979010A4347
:10708000426142690A400592426949000A434261ED
:1070900040690024084005903820009002200190AB
:1070A000032003900294694604941A48FFF7CEFA2D
:1070B0001A4D194828601020AC6068602C616C6122
:1070C000EF618020AC61E8602846FFF777FA00287E
:1070D00001D0FFF700FA75656E620F480F4D143846
:1070E000443511C52C60AC60EC606F6180202C6170
:1070F000686028460838083DFFF760FA002801D08C
:10710000FFF7E9F9B5656E6207B0F0BD00300140E8
:10711000001002400004004830000240AC01002092
:10712000094910B5401E884201D9012010BD074C05
:1071300060610321081F00F0C1F80020A061072052
:107140002061002010BD0000FFFFFF0000E000E014
:10715000FEE7000008B5044841690122114341617E
:1071600040691040009008BD00100240F0B587B0A3
:1071700014216846FEF7FCFF384842690121C90422
:107180000A43426142690A4005924269C9000A43C2
:10719000426142690A400592426949110A434261CB
:1071A00042690A400592426949000A4342614069C6
:1071B0000E1108400590012231462948FFF7FBFADD
:1071C0007710002239462748FFF7F5FA00240125F9
:1071D000029469462348009701950394FFF736FA15
:1071E000009603260195029469461D480396FFF711
:1071F0002DFA01220920D103C006FFF7DCFAE803CB
:10720000009009200294694601950394C006FFF797
:107210001DFA2803009069460396019502941148CF
:10722000FFF714FA019469460D48009703960294FB
:10723000FFF70CFA402000900B4801906946029439
:107240000848FFF703FA002201210720FFF708FB97
:107250000720FFF7FBFA07B0F0BD00000010024066
:1072600000080048000400480000111010B5114843
:107270000F490160FF210531416000210722816033
:1072800012020161C2600122416152028261016207
:107290004162082281620723C261C36242630163C3
:1072A000FFF72EFE002801D0FFF715F910BD0000F2
:1072B0000030014048010020704700008307FF2292
:1072C000DB0E9A408907090E994000280BDA000767
:1072D000000F0838830808489B001818C3699343B7
:1072E0000B43C3617047830804489B001B18186850
:1072F000904308431860704700ED00E000E400E0B0
:107300000149012008707047000100200149032055
:107310000870704700010020014902200870704782
:10732000000100200149042008707047000100207E
:1073300001490520087070470001002070470000D7
:1073400010B50248FFF772FD10BD00004801002093
:1073500010B5406A002146221152C187FFF764FD33
:1073600010BD704701B582B06846007A8106C2063A
:10737000C90FD20F4901120111430207D20FD200E7
:1073800011434207D20F920011438207D20F5200DD
:107390001143C007C00F01436846017001226946CE
:1073A000892000F07DFB0EBD08B5020A69460A700F
:1073B00048700222972000F073FB08BD10B5FF2033
:1073C000543000F0EDFA0402FF20553000F0E8FAE6
:1073D000204310BDF8B50020214A00909279014663
:1073E000032A3CDA002A3AD0012A01D0022A36D1F7
:1073F0001C4800F0D5FA6B46187005461948401C29
:1074000000F0CEFA6B46587004461648801C00F017
:10741000C7FA29042202114301436B460E039870F8
:10742000360B00F033F8FEF78FFF02460B460020C4
:107430000D49FEF711FF00220C4BFEF7A5FE054695
:107440000C461421304600F0E3FFFEF77DFF084AAA
:10745000084BFEF799FE2A462346FEF7FDFEF8BDCF
:1074600034010020540900000000994000408F4082
:10747000CDCCCCCCCCCCF83F08B502226946152047
:1074800000F068FA6846008840BA08BD0949002043
:10749000C9790A290BD0182907D0262903D0342905
:1074A00000D10548704705487047054870470548B2
:1074B000704700003401002075190300EA3206000D
:1074C000D4650C00A8CB1800014840797047000033
:1074D00034010020FEB50446052269461D2000F057
:1074E00039FA9548FD218079FB22F723EF25DF2625
:1074F0002070032877D012DC00281BD0012801D08F
:10750000022816D1684600784042C70F381840104C
:1075100060706846407880281AD280081EE00428EF
:107520007ED00F2805D106212046FEF721FE0F2030
:107530002070FEBD6F4638784042C70F38184010A3
:1075400060706F4678784042C70F3818401005E0E9
:10755000FF380138C717BF0F38188010A0706F466A
:10756000E078BF7840087F064000FF0F3843E070A6
:107570006F46BF780840BF06FF0F7F003843E070BA
:1075800010406F46BA78D206D20F92001043E070D6
:10759000BA7818401207D20FD2001043E070BA78C0
:1075A00028405207D20F12011043E070BA783040E1
:1075B0009207D20F52011043E070BF221040BA78F8
:1075C000D207520E1043E0702079FA7840089206F4
:1075D0004000D20F104320710840F978C907890F85
:1075E0000843A3E0FFE76F4638784042C70F3818DA
:1075F000401060706F4678784042C70F38184010CE
:10760000A0706F46E078BF7840087F064000FF0F0B
:107610003843E07008406F46B9788906C90F00E02A
:107620003FE049000843E070B9781040C906C90F2F
:1076300089000843E070B97818400907C90FC900EC
:107640000843E070B97828404907C90F0901084389
:10765000E070B97830408907C90F49010843E070EC
:10766000BF210840B978C907490E0843E070207966
:10767000F97880088000890908432071F978104062
:107680008906C90F890008432071F9781840C90696
:10769000C90FC90008432071F9782840C907C90EED
:1076A0009EE76F4638784042C70F38184010607028
:1076B0006F4678784042C70F38184010A0706F4668
:1076C000E078BF7840087F064000FF0F3843E07045
:1076D00008406F46B9788906C90F49000843E07031
:1076E000B9781040C906C90F89000843E070B9781D
:1076F00018400907C90FC9000843E070B97828404D
:107700004907C90F09010843E070B978304089077B
:10771000C90F49010843E070BF210840B978C90783
:10772000490E0843E070F878C007C00F207138791F
:107730004007400F6071FEBD340100200148807990
:10774000704700003401002070B50C46064615460F
:107750000749204600F08CF82278AA4201D901207E
:1077600070BD03483146007800F0CCF8002070BDB1
:1077700034010020F8B506462F48002480792546BC
:10778000022856D1012000F09BFD2C4F384600F016
:1077900007F902210143384600F09CF9274F5B3F6F
:1077A000384600F0FDF8CF210840B107890E0143AB
:1077B000384600F08FF921481E3800F0F1F8070430
:1077C0001E481D3800F0ECF8000207431B481C3827
:1077D00000F0E6F80743002000F072FD002E06D00E
:1077E000012E19D0022E17D0032E22D114E0FFF75C
:1077F0004DFEFEF7A9FD0C4605461821384600F05F
:1078000007FEFEF7A1FD2A462346FEF725FD0022CE
:107810000B4BFEF7B9FC0AE03846FEF7A9FD002243
:10782000084BFEF7B1FC0022074BFEF715FD04469E
:107830000D4620462946F8BD340100207F0900008E
:10784000A3E1E140000034400000594008B50021A8
:1078500068460170012269461F2000F07BF86846E7
:1078600000784042C10F0818401040B208BD000027
:10787000F8B50D46044602226946172000F06AF862
:107880000C4EB079012809D10B4800F089F8C009E5
:1078900004D00948801E00F083F805E0B079042880
:1078A0006846007800D1801C2070684640782870B7
:1078B000F8BD0000340100200309000008B50020D5
:1078C000694608700122C02000F044F86946087833
:1078D00008BD000010B540210548FEF763FF4400D5
:1078E000012149030348FEF75DFF0443E0B210BDE8
:1078F000000400480008004810B500F083F800F0CC
:1079000011F910BD70B50E4601461446D51C0F483E
:107910001B2202704170002181700B4603E0C218E7
:107920005B1CD1709BB2A342F9D300F095F80749D4
:107930002A46FF31054800F083FD224604493046BF
:10794000FEF7FDFB00F088F870BD00003402002057
:107950003603002070B50E46911C8DB20E491446B8
:10796000087000204870034603E0CA185B1C907042
:107970009BB2A342F9D300F06FF807492A46FF31C2
:10798000054800F05DFD224604493046FEF7D7FB6E
:1079900000F062F870BD00003402002035030020C2
:1079A00008B50122694600F003F86846007808BD72
:1079B00070B50E46111D8DB2104B19211970010AB8
:1079C0005970987000211446D970084603E01A18BF
:1079D000401C117180B2A042F9D300F03DF8074974
:1079E0002A46FF31054800F02BFD22460449304667
:1079F000FEF7A5FB00F030F870BD00003402002057
:107A00003703002070B56420FEF704FE0124114DF9
:107A1000A403002221462846FEF7CDFE6420FEF78F
:107A2000F9FD012221462846FEF7C5FE6420FEF737
:107A3000F1FD002221462846FEF7BDFE6420FEF738
:107A4000E9FD012221462846FEF7B5FE6420FEF737
:107A5000E1FD70BD0008004870B50124044D6403C9
:107A600021462846FEF79EFE0128F9D070BD000091
:107A70000008004810B509481A230370002343701A
:107A8000941C801CFEF75BFBFFF7E6FF21460348D2
:107A900000F0CAFCFFF7E0FF10BD00003402002038
:107AA000F8B50546501C14460F4686B2FFF7D4FFC2
:107AB0000748224605703946401CFEF740FB314618
:107AC000034800F0B1FC842D01D0FFF7C5FFF8BDDD
:107AD0003402002013B5012201A900F001F81CBDF9
:107AE00070B50346D01C84B20848182505701D0ADD
:107AF00045708370C01CFEF722FBFFF7ADFF2146E7
:107B0000024800F091FCFFF7A7FF70BD340200208F
:107B100010B50349086108460C30FFF7EDFE10BDB3
:107B20003401002010B50548017A002902D0012156
:107B3000417210BD00F004F810BD000034010020B7
:107B4000F8B59E4D687900285BD0AE79FFF794FCBC
:107B500004469B48FFF728FC330000F0EAFC0504CC
:107B600053DA040452006879042838D0052848D133
:107B7000A0071AD5600607D52869002815D08169A5
:107B8000002912D0022008E02007286907D5002824
:107B90000BD08169002908D00120884705E0002822
:107BA00003D04068002800D08047600706D52869C8
:107BB000002803D08068002800D08047200707D520
:107BC0002869002804D08169002901D00120884754
:107BD000600416D52869002813D040690EE0E0073C
:107BE00006D02869002803D00068002800D080470C
:107BF000600406D52869002803D00069002800D059
:107C00008047F8BD6879012609277603FF06042816
:107C10004FD005280DD00628F3D1E004D8D5A00414
:107C2000286970D50028ECD0016A0029E9D001202C
:107C30006DE0A00715D56006286907D5002810D08B
:107C4000816900290DD00220884705E0002808D06E
:107C50004068002805D08047002231463846FEF7AC
:107C6000AAFDE00606D52869002803D0C0680028D0
:107C700000D08047A0060CD52869002809D081696A
:107C8000002906D000208847002231463846FEF7FA
:107C900092FD600406D52869002803D040690028B9
:107CA00000D08047E005ACD528690028A9D08169BB
:107CB0007FE0E00711D0286900280ED00068002876
:107CC0000BD080470121002209033E48FEF773FDD7
:107CD000012231463846FEF76EFD600491D52869D1
:107CE00000288ED0006900288BD080470121002217
:107CF00009033448FEF75FFD012231463846FEF79E
:107D00005AFDF8BDFFE70028FBD0016A3DE0884737
:107D1000F7E7687904283CD00528F2D1E00507D5BB
:107D20002869002804D0C169002901D000208847B3
:107D3000200507D52869002804D0C169002901D091
:107D400001208847200607D52869002804D0C1698A
:107D5000002901D001208847600407D52869002840
:107D600004D0C169002901D000208847E00606D56B
:107D70002869002803D0C068002800D08047A006EA
:107D8000BFD528690028BCD081690029B9D000205E
:107D9000BDE7600507D52869002804D0C16900291E
:107DA00001D002208847A005ABD528690028A8D0BB
:107DB000C1690029A5D00320A9E7000034010020F3
:107DC000FFFF00000004004870B5094D2846FFF78A
:107DD000E7FD04462020214601432846FFF77AFEAE
:107DE000DF20044021462846FFF774FE70BD0000E6
:107DF0002309000010B57F2800D27F2001460248E9
:107E0000FFF768FE10BD00001E09000010B5144603
:107E100000F080F9012211030348FEF7CCFC204654
:107E200000F0AAFA10BD00000004004801B50122CC
:107E300069469E20FFF734FE08BD08B52138020AC6
:107E400069460A70487002229820FFF729FE08BD93
:107E500010B50446010E0A48FFF73CFE2002010E51
:107E60009D200001FFF736FE2004010E0448801C0F
:107E7000FFF730FE0248E1B2C01CFFF72BFE10BD39
:107E8000CF09000010B50248FFF7E2FF10BD000067
:107E9000D6BE898E08B56A461070517002226946B6
:107EA0008F20FFF7FDFD08BD10B500221146C5204B
:107EB000FFF7F6FD01490620487110BD340100208E
:107EC00001B5012269468820FFF7EAFD0149062035
:107ED000487108BD3401002008B5020A69460A70DD
:107EE000487005488079002801D0032803D1022278
:107EF0000248FFF7F5FD08BD34010020C609000067
:107F000008B5020A69460A70487005488079002859
:107F100001D0032803D102220248FFF7E1FD08BD8A
:107F200034010020C809000008B5020E69460A7035
:107F3000020C4A70020A8A70C870044880790228CC
:107F400003D104220248FFF7CBFD08BD3401002015
:107F5000160900007CB5050A6C4625706070080A99
:107F6000A070E170100A20716271180AA071E371AB
:107F7000082269468D20FFF793FD7CBD10B50022D5
:107F80001146C120FFF78CFD01490320487110BD47
:107F9000340100200149002008727047340100209C
:107FA00001B5012269469B20FFF77AFD08BD00005C
:107FB00038B5214D04460078A979884201D000F0F7
:107FC0009BF8207803281DD006DC002809D0012862
:107FD0000ED002282AD10BE004281BD00F2825D16F
:107FE0001FE0617868460170A1784170E1780FE088
:107FF00021796846017061794170A1798170607959
:10800000E87113E0E17968460170217A4170617A84
:1080100081700BE0A17A68460170E17A4170217BA2
:10802000F6E70020694608704870887003226946A8
:108030008B20FFF735FD38BD340100201CB52D49DC
:10804000044600788979884201D000F055F82178FB
:108050000020032927D006DC002909D0012916D0E9
:1080600002293CD113E004292DD00F2937D13CE05F
:10807000617868460170A1784170E178817021795A
:10808000C17061790171A1794171E17919E0227AB8
:1080900069460A70627A4A70A27A8A70E27ACA7075
:1080A000227B0A7119E0617B68460170A17B4170F7
:1080B000E17B8170217CC170617C0171A17C417187
:1080C000E17C81710BE0227D69460A70627D4A7015
:1080D000A27D8A70E27DCA7009E04871887107222A
:1080E00069468C20FFF7DCFC1CBD694600900871D6
:1080F000F3E700003401002001B568460449007828
:108100008871012269468A20FFF7CAFC08BD000079
:10811000340100200A4610B501460020FFF7AAFCF2
:1081200010BD000001490120087270473401002091
:1081300010B5044606488079022808D1210A05486E
:10814000FFF7C8FC0348E1B2401CFFF7C3FC10BDB9
:10815000340100202C09000070B5044608488079DD
:1081600002280BD1074D2846FFF71AFC8106A0070D
:10817000890E000E01432846FFF7ACFC70BD0000DD
:10818000340100203109000008B5020E69460A706A
:10819000020C4A70020A8A70C8700448807902286A
:1081A00003D104220248FFF79BFC08BD34010020E4
:1081B0001209000008B5694608700122A320FFF7E4
:1081C0006FFC08BD70B5064D0024A00041198978E8
:1081D000285AFFF77FFC641C24B2002CF5D070BD38
:1081E000F885000801B5012269469620FFF758FC82
:1081F00008BD08B5020C69460A70020A4A70887008
:1082000003228620FFF74CFC08BD000011B581B0A9
:10821000684601790170C1880A0A42708170094874
:10822000FFF7C2F8084CA079022802D10020FFF71E
:10823000C1FF002211468220FFF732FC0520607149
:108240001CBD0000FFFF0000340100201CB56B4680
:108250001870080A58709970100AD8701A7105229F
:1082600069469420FFF71CFC0149052048711CBD9C
:108270003401002010B500221146D520FFF710FC74
:1082800010BD000001B582B06846007A8207C107C0
:10829000D20F090F920011434207D20F520011432F
:1082A0000007C00F0143684601700449002048716F
:1082B000012269468420FFF7F3FB0EBD3401002044
:1082C00001B5012269468020FFF7EAFB6846017884
:1082D0000348002902D00221417108BD0121FBE7BA
:1082E00034010020034610B518488279002A05D0D1
:1082F0001748032A13D0042A22D11EE00522012B9D
:1083000004D0022B05D0032B1AD105E01048401EE3
:1083100018E00F48001D15E00D48093012E0042256
:10832000012B0FD0022B02D0032B09D102E0084809
:10833000401D07E006480A3004E00422012B01D06A
:10834000012010BDFFF7CCFB002010BD3401002040
:10835000CF09000070B5074D04462846FFF720FB03
:10836000010920070901000F01432846FFF7B2FB6E
:1083700070BD0000CD09000011B581B068460179DB
:108380000170C1880A0A427081700948FFF70CF831
:10839000084CA079022802D10120FFF70BFF002230
:1083A00011468320FFF77CFB042060711CBD000098
:1083B000FFFF00003401002010B500221146D2203A
:1083C000FFF76EFB10BD10B500221146D120FFF75C
:1083D00067FB10BD08B56A4612301070517002225A
:1083E00069468E20FFF75CFB08BD000010B506490A
:1083F0008979002903D0032901D0042903D101463A
:108400000248FFF767FB10BD34010020C5090000DA
:1084100010B502228B1E14469C40844202D8491E8D
:108420008A40801A10BD000000B50B4691B001468D
:108430006A460248FEF7C0FD11B000BD48010020A9
:1084400013460A4610B501460148FEF7B5FD10BDBA
:108450004801002010B5FEF7BBF910BD30B591B052
:1084600034216846FDF784FE00240D940225012086
:108470000E940390102009950F9404900095C0026B
:108480000A90109440010B900C946846FEF7E0FAB5
:1084900007200D900F9401210E9510940DA8FEF762
:1084A000E3F911B030BD0000124801680122114308
:1084B00001604168104A1140416001680F4A114053
:1084C00001600168012292049143016041683F22EA
:1084D000120491434160C16A09090901C162016B3B
:1084E000074A11400163416B49084900416300217B
:1084F00081607047001002400CB8FF08FFFFF6FED5
:108500002CFEFCFF2021020C01D010211046020A93
:1085100001D010460839020901D01046091F82080F
:1085200001D01046891E420801D0881E7047081AE3
:10853000704730B47446641E2578641CAB4200D288
:108540001D46635D5B00E31830BC184702E008C8B5
:10855000121F08C1002AFAD170477047002001E0BD
:1085600001C1121F002AFBD1704700001FB5FEF7A2
:1085700037F9FFF773FFFEF7F9FDFEF7EBFDFEF7A6
:1085800075FE134C134821688847616B01208847AA
:1085900011A103C90F4D0126083D114F760301912A
:1085A0000090052302AA69460E48FEF705FD052343
:1085B00002AA69460B48FEF7FFFC206B8047686003
:1085C00031463846FEF7F3F83220FEF723F8E8E7A5
:1085D000FC8500080801002019015300000000007C
:1085E00000040048480100200000000000000000D6
:1085F000010203040607080900000000117B0008BF
:10860000057A0008BD780008A17A000855790008AD
:10861000E17A0008D57A0008B1790008A17900084C
:10862000757A000805790008D5780008BD73000840
:10863000E5810008C1820008F9800008B17F0008C8
:108640003D800008F3810008957E0008D58300086E
:10865000557F0008E58200080D8200084977000870
:108660000D7E0008B581000825810008957F00086F
:10867000C5810008C9740008858200087D7F000854
:10868000798300084D820008A97E0008C78300088E
:10869000B98300083D770008C17E000871780008A2
:1086A000D57400084D78000879740008A973000893
:1086B00065730008758200083B7E00082D7E000867
:1086C000A17F00081581000855830008017F00087C
:1086D000517E0008857E0008D97E0008ED830008E1
:1086E00059810008297F00088981000875770008F2
:1086F00031810008C97D0008F57D0008D5730008A8
:108700002087000800010020480000004C85000878
:108710006887000848010020F00600005C8500081A
:10872000000000000000000025730008017300082D
:1087300000000000000000003173000819730008F9
:108740000D730008000000000000000000000000A1
:1087500000127A0000050100000000000000000087
:08876000257B00080000000069
:04000005080060C1CE
:00000001FF
